{
    "_format": "hh-sol-artifact-1",
    "contractName": "NFTCollectionGroup20",
    "sourceName": "contracts/NFTCollectionGroup20.sol",
    "abi": [
        {
            "inputs": [],
            "stateMutability": "nonpayable",
            "type": "constructor"
        },
        {
            "anonymous": false,
            "inputs": [
                {
                    "indexed": true,
                    "internalType": "address",
                    "name": "owner",
                    "type": "address"
                },
                {
                    "indexed": true,
                    "internalType": "address",
                    "name": "approved",
                    "type": "address"
                },
                {
                    "indexed": true,
                    "internalType": "uint256",
                    "name": "tokenId",
                    "type": "uint256"
                }
            ],
            "name": "Approval",
            "type": "event"
        },
        {
            "anonymous": false,
            "inputs": [
                {
                    "indexed": true,
                    "internalType": "address",
                    "name": "owner",
                    "type": "address"
                },
                {
                    "indexed": true,
                    "internalType": "address",
                    "name": "operator",
                    "type": "address"
                },
                {
                    "indexed": false,
                    "internalType": "bool",
                    "name": "approved",
                    "type": "bool"
                }
            ],
            "name": "ApprovalForAll",
            "type": "event"
        },
        {
            "anonymous": false,
            "inputs": [
                {
                    "indexed": false,
                    "internalType": "address",
                    "name": "sender",
                    "type": "address"
                },
                {
                    "indexed": false,
                    "internalType": "uint256",
                    "name": "tokenId",
                    "type": "uint256"
                }
            ],
            "name": "NewNFTMinted",
            "type": "event"
        },
        {
            "anonymous": false,
            "inputs": [
                {
                    "indexed": true,
                    "internalType": "address",
                    "name": "from",
                    "type": "address"
                },
                {
                    "indexed": true,
                    "internalType": "address",
                    "name": "to",
                    "type": "address"
                },
                {
                    "indexed": true,
                    "internalType": "uint256",
                    "name": "tokenId",
                    "type": "uint256"
                }
            ],
            "name": "Transfer",
            "type": "event"
        },
        {
            "inputs": [
                {
                    "internalType": "uint256",
                    "name": "_tokenID",
                    "type": "uint256"
                }
            ],
            "name": "BuyNFT",
            "outputs": [],
            "stateMutability": "payable",
            "type": "function"
        },
        {
            "inputs": [],
            "name": "MintNFT",
            "outputs": [],
            "stateMutability": "nonpayable",
            "type": "function"
        },
        {
            "inputs": [
                {
                    "internalType": "uint256",
                    "name": "_price",
                    "type": "uint256"
                },
                {
                    "internalType": "uint256",
                    "name": "_tokenID",
                    "type": "uint256"
                }
            ],
            "name": "SetPriceNFT",
            "outputs": [],
            "stateMutability": "nonpayable",
            "type": "function"
        },
        {
            "inputs": [
                {
                    "internalType": "address",
                    "name": "to",
                    "type": "address"
                },
                {
                    "internalType": "uint256",
                    "name": "tokenId",
                    "type": "uint256"
                }
            ],
            "name": "approve",
            "outputs": [],
            "stateMutability": "nonpayable",
            "type": "function"
        },
        {
            "inputs": [
                {
                    "internalType": "address",
                    "name": "owner",
                    "type": "address"
                }
            ],
            "name": "balanceOf",
            "outputs": [
                {
                    "internalType": "uint256",
                    "name": "",
                    "type": "uint256"
                }
            ],
            "stateMutability": "view",
            "type": "function"
        },
        {
            "inputs": [
                {
                    "internalType": "uint256",
                    "name": "tokenId",
                    "type": "uint256"
                }
            ],
            "name": "burn",
            "outputs": [],
            "stateMutability": "nonpayable",
            "type": "function"
        },
        {
            "inputs": [
                {
                    "internalType": "uint256",
                    "name": "tokenId",
                    "type": "uint256"
                }
            ],
            "name": "getApproved",
            "outputs": [
                {
                    "internalType": "address",
                    "name": "",
                    "type": "address"
                }
            ],
            "stateMutability": "view",
            "type": "function"
        },
        {
            "inputs": [
                {
                    "internalType": "uint256",
                    "name": "_tokenID",
                    "type": "uint256"
                }
            ],
            "name": "getPriceNFT",
            "outputs": [
                {
                    "internalType": "uint256",
                    "name": "",
                    "type": "uint256"
                }
            ],
            "stateMutability": "view",
            "type": "function"
        },
        {
            "inputs": [
                {
                    "internalType": "uint256",
                    "name": "",
                    "type": "uint256"
                }
            ],
            "name": "idNFT_SellNFT",
            "outputs": [
                {
                    "internalType": "uint256",
                    "name": "tokenId",
                    "type": "uint256"
                },
                {
                    "internalType": "uint256",
                    "name": "price",
                    "type": "uint256"
                },
                {
                    "internalType": "address",
                    "name": "ownerNFT",
                    "type": "address"
                }
            ],
            "stateMutability": "view",
            "type": "function"
        },
        {
            "inputs": [
                {
                    "internalType": "address",
                    "name": "owner",
                    "type": "address"
                },
                {
                    "internalType": "address",
                    "name": "operator",
                    "type": "address"
                }
            ],
            "name": "isApprovedForAll",
            "outputs": [
                {
                    "internalType": "bool",
                    "name": "",
                    "type": "bool"
                }
            ],
            "stateMutability": "view",
            "type": "function"
        },
        {
            "inputs": [
                {
                    "internalType": "uint256",
                    "name": "",
                    "type": "uint256"
                }
            ],
            "name": "metadata",
            "outputs": [
                {
                    "internalType": "string",
                    "name": "",
                    "type": "string"
                }
            ],
            "stateMutability": "view",
            "type": "function"
        },
        {
            "inputs": [],
            "name": "name",
            "outputs": [
                {
                    "internalType": "string",
                    "name": "",
                    "type": "string"
                }
            ],
            "stateMutability": "view",
            "type": "function"
        },
        {
            "inputs": [],
            "name": "owner",
            "outputs": [
                {
                    "internalType": "address",
                    "name": "",
                    "type": "address"
                }
            ],
            "stateMutability": "view",
            "type": "function"
        },
        {
            "inputs": [
                {
                    "internalType": "uint256",
                    "name": "tokenId",
                    "type": "uint256"
                }
            ],
            "name": "ownerOf",
            "outputs": [
                {
                    "internalType": "address",
                    "name": "",
                    "type": "address"
                }
            ],
            "stateMutability": "view",
            "type": "function"
        },
        {
            "inputs": [
                {
                    "internalType": "address",
                    "name": "from",
                    "type": "address"
                },
                {
                    "internalType": "address",
                    "name": "to",
                    "type": "address"
                },
                {
                    "internalType": "uint256",
                    "name": "tokenId",
                    "type": "uint256"
                }
            ],
            "name": "safeTransferFrom",
            "outputs": [],
            "stateMutability": "nonpayable",
            "type": "function"
        },
        {
            "inputs": [
                {
                    "internalType": "address",
                    "name": "from",
                    "type": "address"
                },
                {
                    "internalType": "address",
                    "name": "to",
                    "type": "address"
                },
                {
                    "internalType": "uint256",
                    "name": "tokenId",
                    "type": "uint256"
                },
                {
                    "internalType": "bytes",
                    "name": "data",
                    "type": "bytes"
                }
            ],
            "name": "safeTransferFrom",
            "outputs": [],
            "stateMutability": "nonpayable",
            "type": "function"
        },
        {
            "inputs": [
                {
                    "internalType": "address",
                    "name": "operator",
                    "type": "address"
                },
                {
                    "internalType": "bool",
                    "name": "approved",
                    "type": "bool"
                }
            ],
            "name": "setApprovalForAll",
            "outputs": [],
            "stateMutability": "nonpayable",
            "type": "function"
        },
        {
            "inputs": [
                {
                    "internalType": "bytes4",
                    "name": "interfaceId",
                    "type": "bytes4"
                }
            ],
            "name": "supportsInterface",
            "outputs": [
                {
                    "internalType": "bool",
                    "name": "",
                    "type": "bool"
                }
            ],
            "stateMutability": "view",
            "type": "function"
        },
        {
            "inputs": [],
            "name": "symbol",
            "outputs": [
                {
                    "internalType": "string",
                    "name": "",
                    "type": "string"
                }
            ],
            "stateMutability": "view",
            "type": "function"
        },
        {
            "inputs": [
                {
                    "internalType": "uint256",
                    "name": "tokenId",
                    "type": "uint256"
                }
            ],
            "name": "tokenURI",
            "outputs": [
                {
                    "internalType": "string",
                    "name": "",
                    "type": "string"
                }
            ],
            "stateMutability": "view",
            "type": "function"
        },
        {
            "inputs": [
                {
                    "internalType": "address",
                    "name": "from",
                    "type": "address"
                },
                {
                    "internalType": "address",
                    "name": "to",
                    "type": "address"
                },
                {
                    "internalType": "uint256",
                    "name": "tokenId",
                    "type": "uint256"
                }
            ],
            "name": "transferFrom",
            "outputs": [],
            "stateMutability": "nonpayable",
            "type": "function"
        }
    ],
    "bytecode": "0x608060405260405180610140016040528060405180608001604052806058815260200162003a8960589139815260200160405180608001604052806059815260200162003cb360599139815260200160405180608001604052806059815260200162003a3060599139815260200160405180608001604052806059815260200162003b9b6059913981526020016040518060800160405280605b8152602001620039d5605b913981526020016040518060800160405280605c815260200162003b3f605c913981526020016040518060800160405280605d815260200162003bf4605d913981526020016040518060800160405280605e815260200162003ae1605e913981526020016040518060a001604052806062815260200162003c5160629139815260200160405180608001604052806058815260200162003a8960589139815250600890600a6200015692919062000257565b5066038d7ea4c680006009553480156200016f57600080fd5b506040518060400160405280601481526020017f4e4654436f6c6c656374696f6e47726f757032300000000000000000000000008152506040518060400160405280600581526020017f4e434732300000000000000000000000000000000000000000000000000000008152508160009080519060200190620001f4929190620002be565b5080600190805190602001906200020d929190620002be565b50505033600b60006101000a81548173ffffffffffffffffffffffffffffffffffffffff021916908373ffffffffffffffffffffffffffffffffffffffff16021790555062000441565b828054828255906000526020600020908101928215620002ab579160200282015b82811115620002aa57825182908051906020019062000299929190620002be565b509160200191906001019062000278565b5b509050620002ba91906200034f565b5090565b828054620002cc906200040b565b90600052602060002090601f016020900481019282620002f057600085556200033c565b82601f106200030b57805160ff19168380011785556200033c565b828001600101855582156200033c579182015b828111156200033b5782518255916020019190600101906200031e565b5b5090506200034b919062000377565b5090565b5b8082111562000373576000818162000369919062000396565b5060010162000350565b5090565b5b808211156200039257600081600090555060010162000378565b5090565b508054620003a4906200040b565b6000825580601f10620003b85750620003d9565b601f016020900490600052602060002090810190620003d8919062000377565b5b50565b7f4e487b7100000000000000000000000000000000000000000000000000000000600052602260045260246000fd5b600060028204905060018216806200042457607f821691505b602082108114156200043b576200043a620003dc565b5b50919050565b61358480620004516000396000f3fe60806040526004361061012a5760003560e01c806370a08231116100ab578063a37365e01161006f578063a37365e014610404578063b88d4fde14610420578063c261ac5814610449578063c87b56dd14610472578063e3684e39146104af578063e985e9c5146104ec5761012a565b806370a082311461030b57806387fe0446146103485780638da5cb5b1461038557806395d89b41146103b0578063a22cb465146103db5761012a565b806342842e0e116100f257806342842e0e1461022657806342966c681461024f578063574494f4146102785780636352211e146102b75780636d364392146102f45761012a565b806301ffc9a71461012f57806306fdde031461016c578063081812fc14610197578063095ea7b3146101d457806323b872dd146101fd575b600080fd5b34801561013b57600080fd5b5061015660048036038101906101519190612378565b610529565b60405161016391906123c0565b60405180910390f35b34801561017857600080fd5b5061018161060b565b60405161018e9190612474565b60405180910390f35b3480156101a357600080fd5b506101be60048036038101906101b991906124cc565b61069d565b6040516101cb919061253a565b60405180910390f35b3480156101e057600080fd5b506101fb60048036038101906101f69190612581565b6106e3565b005b34801561020957600080fd5b50610224600480360381019061021f91906125c1565b6107fb565b005b34801561023257600080fd5b5061024d600480360381019061024891906125c1565b61085b565b005b34801561025b57600080fd5b50610276600480360381019061027191906124cc565b61087b565b005b34801561028457600080fd5b5061029f600480360381019061029a91906124cc565b6108d7565b6040516102ae93929190612623565b60405180910390f35b3480156102c357600080fd5b506102de60048036038101906102d991906124cc565b610921565b6040516102eb919061253a565b60405180910390f35b34801561030057600080fd5b506103096109d3565b005b34801561031757600080fd5b50610332600480360381019061032d919061265a565b610bf8565b60405161033f9190612687565b60405180910390f35b34801561035457600080fd5b5061036f600480360381019061036a91906124cc565b610cb0565b60405161037c9190612687565b60405180910390f35b34801561039157600080fd5b5061039a610cd0565b6040516103a7919061253a565b60405180910390f35b3480156103bc57600080fd5b506103c5610cf6565b6040516103d29190612474565b60405180910390f35b3480156103e757600080fd5b5061040260048036038101906103fd91906126ce565b610d88565b005b61041e600480360381019061041991906124cc565b610d9e565b005b34801561042c57600080fd5b5061044760048036038101906104429190612843565b610ee2565b005b34801561045557600080fd5b50610470600480360381019061046b91906128c6565b610f44565b005b34801561047e57600080fd5b50610499600480360381019061049491906124cc565b61104a565b6040516104a69190612474565b60405180910390f35b3480156104bb57600080fd5b506104d660048036038101906104d191906124cc565b61105c565b6040516104e39190612474565b60405180910390f35b3480156104f857600080fd5b50610513600480360381019061050e9190612906565b611108565b60405161052091906123c0565b60405180910390f35b60007f80ac58cd000000000000000000000000000000000000000000000000000000007bffffffffffffffffffffffffffffffffffffffffffffffffffffffff1916827bffffffffffffffffffffffffffffffffffffffffffffffffffffffff191614806105f457507f5b5e139f000000000000000000000000000000000000000000000000000000007bffffffffffffffffffffffffffffffffffffffffffffffffffffffff1916827bffffffffffffffffffffffffffffffffffffffffffffffffffffffff1916145b8061060457506106038261119c565b5b9050919050565b60606000805461061a90612975565b80601f016020809104026020016040519081016040528092919081815260200182805461064690612975565b80156106935780601f1061066857610100808354040283529160200191610693565b820191906000526020600020905b81548152906001019060200180831161067657829003601f168201915b5050505050905090565b60006106a882611206565b6004600083815260200190815260200160002060009054906101000a900473ffffffffffffffffffffffffffffffffffffffff169050919050565b60006106ee82610921565b90508073ffffffffffffffffffffffffffffffffffffffff168373ffffffffffffffffffffffffffffffffffffffff16141561075f576040517f08c379a000000000000000000000000000000000000000000000000000000000815260040161075690612a19565b60405180910390fd5b8073ffffffffffffffffffffffffffffffffffffffff1661077e611251565b73ffffffffffffffffffffffffffffffffffffffff1614806107ad57506107ac816107a7611251565b611108565b5b6107ec576040517f08c379a00000000000000000000000000000000000000000000000000000000081526004016107e390612aab565b60405180910390fd5b6107f68383611259565b505050565b61080c610806611251565b82611312565b61084b576040517f08c379a000000000000000000000000000000000000000000000000000000000815260040161084290612b3d565b60405180910390fd5b6108568383836113a7565b505050565b61087683838360405180602001604052806000815250610ee2565b505050565b61088c610886611251565b82611312565b6108cb576040517f08c379a00000000000000000000000000000000000000000000000000000000081526004016108c290612b3d565b60405180910390fd5b6108d48161160e565b50565b600a6020528060005260406000206000915090508060000154908060010154908060020160009054906101000a900473ffffffffffffffffffffffffffffffffffffffff16905083565b6000806002600084815260200190815260200160002060009054906101000a900473ffffffffffffffffffffffffffffffffffffffff169050600073ffffffffffffffffffffffffffffffffffffffff168173ffffffffffffffffffffffffffffffffffffffff1614156109ca576040517f08c379a00000000000000000000000000000000000000000000000000000000081526004016109c190612ba9565b60405180910390fd5b80915050919050565b6109dd600761161a565b60006109e96007611630565b9050600a811115610a2f576040517f08c379a0000000000000000000000000000000000000000000000000000000008152600401610a2690612c3b565b60405180910390fd5b610a39338261163e565b610af5816008600184610a4c9190612c8a565b81548110610a5d57610a5c612cbe565b5b906000526020600020018054610a7290612975565b80601f0160208091040260200160405190810160405280929190818152602001828054610a9e90612975565b8015610aeb5780601f10610ac057610100808354040283529160200191610aeb565b820191906000526020600020905b815481529060010190602001808311610ace57829003601f168201915b505050505061165c565b604051806060016040528082815260200160095481526020013373ffffffffffffffffffffffffffffffffffffffff16815250600a6000838152602001908152602001600020600082015181600001556020820151816001015560408201518160020160006101000a81548173ffffffffffffffffffffffffffffffffffffffff021916908373ffffffffffffffffffffffffffffffffffffffff160217905550905050610bbc60405180606001604052806025815260200161352a6025913982336116d0565b7f1c05098ed1ff38e6238d2b1b04b2c7977d4c94ce651bda6473f9dba8dbf01da03382604051610bed929190612ced565b60405180910390a150565b60008073ffffffffffffffffffffffffffffffffffffffff168273ffffffffffffffffffffffffffffffffffffffff161415610c69576040517f08c379a0000000000000000000000000000000000000000000000000000000008152600401610c6090612d88565b60405180910390fd5b600360008373ffffffffffffffffffffffffffffffffffffffff1673ffffffffffffffffffffffffffffffffffffffff168152602001908152602001600020549050919050565b6000600a6000838152602001908152602001600020600101549050919050565b600b60009054906101000a900473ffffffffffffffffffffffffffffffffffffffff1681565b606060018054610d0590612975565b80601f0160208091040260200160405190810160405280929190818152602001828054610d3190612975565b8015610d7e5780601f10610d5357610100808354040283529160200191610d7e565b820191906000526020600020905b815481529060010190602001808311610d6157829003601f168201915b5050505050905090565b610d9a610d93611251565b838361176f565b5050565b6000600a6000838152602001908152602001600020600101549050803414610dfb576040517f08c379a0000000000000000000000000000000000000000000000000000000008152600401610df290612df4565b60405180910390fd5b6000600a600084815260200190815260200160002060020160009054906101000a900473ffffffffffffffffffffffffffffffffffffffff16905033600a600085815260200190815260200160002060020160006101000a81548173ffffffffffffffffffffffffffffffffffffffff021916908373ffffffffffffffffffffffffffffffffffffffff160217905550610e968133856113a7565b8073ffffffffffffffffffffffffffffffffffffffff166108fc349081150290604051600060405180830381858888f19350505050158015610edc573d6000803e3d6000fd5b50505050565b610ef3610eed611251565b83611312565b610f32576040517f08c379a0000000000000000000000000000000000000000000000000000000008152600401610f2990612b3d565b60405180910390fd5b610f3e848484846118dc565b50505050565b60008211610f87576040517f08c379a0000000000000000000000000000000000000000000000000000000008152600401610f7e90612e60565b60405180910390fd5b600a600082815260200190815260200160002060020160009054906101000a900473ffffffffffffffffffffffffffffffffffffffff1673ffffffffffffffffffffffffffffffffffffffff163373ffffffffffffffffffffffffffffffffffffffff161461102b576040517f08c379a000000000000000000000000000000000000000000000000000000000815260040161102290612ecc565b60405180910390fd5b81600a6000838152602001908152602001600020600101819055505050565b606061105582611938565b9050919050565b6008818154811061106c57600080fd5b90600052602060002001600091509050805461108790612975565b80601f01602080910402602001604051908101604052809291908181526020018280546110b390612975565b80156111005780601f106110d557610100808354040283529160200191611100565b820191906000526020600020905b8154815290600101906020018083116110e357829003601f168201915b505050505081565b6000600560008473ffffffffffffffffffffffffffffffffffffffff1673ffffffffffffffffffffffffffffffffffffffff16815260200190815260200160002060008373ffffffffffffffffffffffffffffffffffffffff1673ffffffffffffffffffffffffffffffffffffffff16815260200190815260200160002060009054906101000a900460ff16905092915050565b60007f01ffc9a7000000000000000000000000000000000000000000000000000000007bffffffffffffffffffffffffffffffffffffffffffffffffffffffff1916827bffffffffffffffffffffffffffffffffffffffffffffffffffffffff1916149050919050565b61120f81611a4b565b61124e576040517f08c379a000000000000000000000000000000000000000000000000000000000815260040161124590612ba9565b60405180910390fd5b50565b600033905090565b816004600083815260200190815260200160002060006101000a81548173ffffffffffffffffffffffffffffffffffffffff021916908373ffffffffffffffffffffffffffffffffffffffff160217905550808273ffffffffffffffffffffffffffffffffffffffff166112cc83610921565b73ffffffffffffffffffffffffffffffffffffffff167f8c5be1e5ebec7d5bd14f71427d1e84f3dd0314c0f7b2291e5b200ac8c7c3b92560405160405180910390a45050565b60008061131e83610921565b90508073ffffffffffffffffffffffffffffffffffffffff168473ffffffffffffffffffffffffffffffffffffffff161480611360575061135f8185611108565b5b8061139e57508373ffffffffffffffffffffffffffffffffffffffff166113868461069d565b73ffffffffffffffffffffffffffffffffffffffff16145b91505092915050565b8273ffffffffffffffffffffffffffffffffffffffff166113c782610921565b73ffffffffffffffffffffffffffffffffffffffff161461141d576040517f08c379a000000000000000000000000000000000000000000000000000000000815260040161141490612f5e565b60405180910390fd5b600073ffffffffffffffffffffffffffffffffffffffff168273ffffffffffffffffffffffffffffffffffffffff16141561148d576040517f08c379a000000000000000000000000000000000000000000000000000000000815260040161148490612ff0565b60405180910390fd5b611498838383611ab7565b6114a3600082611259565b6001600360008573ffffffffffffffffffffffffffffffffffffffff1673ffffffffffffffffffffffffffffffffffffffff16815260200190815260200160002060008282546114f39190612c8a565b925050819055506001600360008473ffffffffffffffffffffffffffffffffffffffff1673ffffffffffffffffffffffffffffffffffffffff168152602001908152602001600020600082825461154a9190613010565b92505081905550816002600083815260200190815260200160002060006101000a81548173ffffffffffffffffffffffffffffffffffffffff021916908373ffffffffffffffffffffffffffffffffffffffff160217905550808273ffffffffffffffffffffffffffffffffffffffff168473ffffffffffffffffffffffffffffffffffffffff167fddf252ad1be2c89b69c2b068fc378daa952ba7f163c4a11628f55a4df523b3ef60405160405180910390a4611609838383611abc565b505050565b61161781611ac1565b50565b6001816000016000828254019250508190555050565b600081600001549050919050565b611658828260405180602001604052806000815250611b14565b5050565b61166582611a4b565b6116a4576040517f08c379a000000000000000000000000000000000000000000000000000000000815260040161169b906130d8565b60405180910390fd5b806006600084815260200190815260200160002090805190602001906116cb929190612229565b505050565b61176a8383836040516024016116e8939291906130f8565b6040516020818303038152906040527fe3849f79000000000000000000000000000000000000000000000000000000007bffffffffffffffffffffffffffffffffffffffffffffffffffffffff19166020820180517bffffffffffffffffffffffffffffffffffffffffffffffffffffffff8381831617835250505050611b6f565b505050565b8173ffffffffffffffffffffffffffffffffffffffff168373ffffffffffffffffffffffffffffffffffffffff1614156117de576040517f08c379a00000000000000000000000000000000000000000000000000000000081526004016117d590613182565b60405180910390fd5b80600560008573ffffffffffffffffffffffffffffffffffffffff1673ffffffffffffffffffffffffffffffffffffffff16815260200190815260200160002060008473ffffffffffffffffffffffffffffffffffffffff1673ffffffffffffffffffffffffffffffffffffffff16815260200190815260200160002060006101000a81548160ff0219169083151502179055508173ffffffffffffffffffffffffffffffffffffffff168373ffffffffffffffffffffffffffffffffffffffff167f17307eab39ab6107e8899845ad3d59bd9653f200f220920489ca2b5937696c31836040516118cf91906123c0565b60405180910390a3505050565b6118e78484846113a7565b6118f384848484611b98565b611932576040517f08c379a000000000000000000000000000000000000000000000000000000000815260040161192990613214565b60405180910390fd5b50505050565b606061194382611206565b600060066000848152602001908152602001600020805461196390612975565b80601f016020809104026020016040519081016040528092919081815260200182805461198f90612975565b80156119dc5780601f106119b1576101008083540402835291602001916119dc565b820191906000526020600020905b8154815290600101906020018083116119bf57829003601f168201915b5050505050905060006119ed611d2f565b9050600081511415611a03578192505050611a46565b600082511115611a38578082604051602001611a20929190613270565b60405160208183030381529060405292505050611a46565b611a4184611d46565b925050505b919050565b60008073ffffffffffffffffffffffffffffffffffffffff166002600084815260200190815260200160002060009054906101000a900473ffffffffffffffffffffffffffffffffffffffff1673ffffffffffffffffffffffffffffffffffffffff1614159050919050565b505050565b505050565b611aca81611dae565b6000600660008381526020019081526020016000208054611aea90612975565b905014611b1157600660008281526020019081526020016000206000611b1091906122af565b5b50565b611b1e8383611ecb565b611b2b6000848484611b98565b611b6a576040517f08c379a0000000000000000000000000000000000000000000000000000000008152600401611b6190613214565b60405180910390fd5b505050565b60008151905060006a636f6e736f6c652e6c6f679050602083016000808483855afa5050505050565b6000611bb98473ffffffffffffffffffffffffffffffffffffffff166120a5565b15611d22578373ffffffffffffffffffffffffffffffffffffffff1663150b7a02611be2611251565b8786866040518563ffffffff1660e01b8152600401611c0494939291906132e9565b602060405180830381600087803b158015611c1e57600080fd5b505af1925050508015611c4f57506040513d601f19601f82011682018060405250810190611c4c919061334a565b60015b611cd2573d8060008114611c7f576040519150601f19603f3d011682016040523d82523d6000602084013e611c84565b606091505b50600081511415611cca576040517f08c379a0000000000000000000000000000000000000000000000000000000008152600401611cc190613214565b60405180910390fd5b805181602001fd5b63150b7a0260e01b7bffffffffffffffffffffffffffffffffffffffffffffffffffffffff1916817bffffffffffffffffffffffffffffffffffffffffffffffffffffffff191614915050611d27565b600190505b949350505050565b606060405180602001604052806000815250905090565b6060611d5182611206565b6000611d5b611d2f565b90506000815111611d7b5760405180602001604052806000815250611da6565b80611d85846120c8565b604051602001611d96929190613270565b6040516020818303038152906040525b915050919050565b6000611db982610921565b9050611dc781600084611ab7565b611dd2600083611259565b6001600360008373ffffffffffffffffffffffffffffffffffffffff1673ffffffffffffffffffffffffffffffffffffffff1681526020019081526020016000206000828254611e229190612c8a565b925050819055506002600083815260200190815260200160002060006101000a81549073ffffffffffffffffffffffffffffffffffffffff021916905581600073ffffffffffffffffffffffffffffffffffffffff168273ffffffffffffffffffffffffffffffffffffffff167fddf252ad1be2c89b69c2b068fc378daa952ba7f163c4a11628f55a4df523b3ef60405160405180910390a4611ec781600084611abc565b5050565b600073ffffffffffffffffffffffffffffffffffffffff168273ffffffffffffffffffffffffffffffffffffffff161415611f3b576040517f08c379a0000000000000000000000000000000000000000000000000000000008152600401611f32906133c3565b60405180910390fd5b611f4481611a4b565b15611f84576040517f08c379a0000000000000000000000000000000000000000000000000000000008152600401611f7b9061342f565b60405180910390fd5b611f9060008383611ab7565b6001600360008473ffffffffffffffffffffffffffffffffffffffff1673ffffffffffffffffffffffffffffffffffffffff1681526020019081526020016000206000828254611fe09190613010565b92505081905550816002600083815260200190815260200160002060006101000a81548173ffffffffffffffffffffffffffffffffffffffff021916908373ffffffffffffffffffffffffffffffffffffffff160217905550808273ffffffffffffffffffffffffffffffffffffffff16600073ffffffffffffffffffffffffffffffffffffffff167fddf252ad1be2c89b69c2b068fc378daa952ba7f163c4a11628f55a4df523b3ef60405160405180910390a46120a160008383611abc565b5050565b6000808273ffffffffffffffffffffffffffffffffffffffff163b119050919050565b60606000821415612110576040518060400160405280600181526020017f30000000000000000000000000000000000000000000000000000000000000008152509050612224565b600082905060005b6000821461214257808061212b9061344f565b915050600a8261213b91906134c7565b9150612118565b60008167ffffffffffffffff81111561215e5761215d612718565b5b6040519080825280601f01601f1916602001820160405280156121905781602001600182028036833780820191505090505b5090505b6000851461221d576001826121a99190612c8a565b9150600a856121b891906134f8565b60306121c49190613010565b60f81b8183815181106121da576121d9612cbe565b5b60200101907effffffffffffffffffffffffffffffffffffffffffffffffffffffffffffff1916908160001a905350600a8561221691906134c7565b9450612194565b8093505050505b919050565b82805461223590612975565b90600052602060002090601f016020900481019282612257576000855561229e565b82601f1061227057805160ff191683800117855561229e565b8280016001018555821561229e579182015b8281111561229d578251825591602001919060010190612282565b5b5090506122ab91906122ef565b5090565b5080546122bb90612975565b6000825580601f106122cd57506122ec565b601f0160209004906000526020600020908101906122eb91906122ef565b5b50565b5b808211156123085760008160009055506001016122f0565b5090565b6000604051905090565b600080fd5b600080fd5b60007fffffffff0000000000000000000000000000000000000000000000000000000082169050919050565b61235581612320565b811461236057600080fd5b50565b6000813590506123728161234c565b92915050565b60006020828403121561238e5761238d612316565b5b600061239c84828501612363565b91505092915050565b60008115159050919050565b6123ba816123a5565b82525050565b60006020820190506123d560008301846123b1565b92915050565b600081519050919050565b600082825260208201905092915050565b60005b838110156124155780820151818401526020810190506123fa565b83811115612424576000848401525b50505050565b6000601f19601f8301169050919050565b6000612446826123db565b61245081856123e6565b93506124608185602086016123f7565b6124698161242a565b840191505092915050565b6000602082019050818103600083015261248e818461243b565b905092915050565b6000819050919050565b6124a981612496565b81146124b457600080fd5b50565b6000813590506124c6816124a0565b92915050565b6000602082840312156124e2576124e1612316565b5b60006124f0848285016124b7565b91505092915050565b600073ffffffffffffffffffffffffffffffffffffffff82169050919050565b6000612524826124f9565b9050919050565b61253481612519565b82525050565b600060208201905061254f600083018461252b565b92915050565b61255e81612519565b811461256957600080fd5b50565b60008135905061257b81612555565b92915050565b6000806040838503121561259857612597612316565b5b60006125a68582860161256c565b92505060206125b7858286016124b7565b9150509250929050565b6000806000606084860312156125da576125d9612316565b5b60006125e88682870161256c565b93505060206125f98682870161256c565b925050604061260a868287016124b7565b9150509250925092565b61261d81612496565b82525050565b60006060820190506126386000830186612614565b6126456020830185612614565b612652604083018461252b565b949350505050565b6000602082840312156126705761266f612316565b5b600061267e8482850161256c565b91505092915050565b600060208201905061269c6000830184612614565b92915050565b6126ab816123a5565b81146126b657600080fd5b50565b6000813590506126c8816126a2565b92915050565b600080604083850312156126e5576126e4612316565b5b60006126f38582860161256c565b9250506020612704858286016126b9565b9150509250929050565b600080fd5b600080fd5b7f4e487b7100000000000000000000000000000000000000000000000000000000600052604160045260246000fd5b6127508261242a565b810181811067ffffffffffffffff8211171561276f5761276e612718565b5b80604052505050565b600061278261230c565b905061278e8282612747565b919050565b600067ffffffffffffffff8211156127ae576127ad612718565b5b6127b78261242a565b9050602081019050919050565b82818337600083830152505050565b60006127e66127e184612793565b612778565b90508281526020810184848401111561280257612801612713565b5b61280d8482856127c4565b509392505050565b600082601f83011261282a5761282961270e565b5b813561283a8482602086016127d3565b91505092915050565b6000806000806080858703121561285d5761285c612316565b5b600061286b8782880161256c565b945050602061287c8782880161256c565b935050604061288d878288016124b7565b925050606085013567ffffffffffffffff8111156128ae576128ad61231b565b5b6128ba87828801612815565b91505092959194509250565b600080604083850312156128dd576128dc612316565b5b60006128eb858286016124b7565b92505060206128fc858286016124b7565b9150509250929050565b6000806040838503121561291d5761291c612316565b5b600061292b8582860161256c565b925050602061293c8582860161256c565b9150509250929050565b7f4e487b7100000000000000000000000000000000000000000000000000000000600052602260045260246000fd5b6000600282049050600182168061298d57607f821691505b602082108114156129a1576129a0612946565b5b50919050565b7f4552433732313a20617070726f76616c20746f2063757272656e74206f776e6560008201527f7200000000000000000000000000000000000000000000000000000000000000602082015250565b6000612a036021836123e6565b9150612a0e826129a7565b604082019050919050565b60006020820190508181036000830152612a32816129f6565b9050919050565b7f4552433732313a20617070726f76652063616c6c6572206973206e6f7420746f60008201527f6b656e206f776e6572206e6f7220617070726f76656420666f7220616c6c0000602082015250565b6000612a95603e836123e6565b9150612aa082612a39565b604082019050919050565b60006020820190508181036000830152612ac481612a88565b9050919050565b7f4552433732313a2063616c6c6572206973206e6f7420746f6b656e206f776e6560008201527f72206e6f7220617070726f766564000000000000000000000000000000000000602082015250565b6000612b27602e836123e6565b9150612b3282612acb565b604082019050919050565b60006020820190508181036000830152612b5681612b1a565b9050919050565b7f4552433732313a20696e76616c696420746f6b656e2049440000000000000000600082015250565b6000612b936018836123e6565b9150612b9e82612b5d565b602082019050919050565b60006020820190508181036000830152612bc281612b86565b9050919050565b7f546865204d6178206e756d626572206f66204e46542077657265206d696e746560008201527f6400000000000000000000000000000000000000000000000000000000000000602082015250565b6000612c256021836123e6565b9150612c3082612bc9565b604082019050919050565b60006020820190508181036000830152612c5481612c18565b9050919050565b7f4e487b7100000000000000000000000000000000000000000000000000000000600052601160045260246000fd5b6000612c9582612496565b9150612ca083612496565b925082821015612cb357612cb2612c5b565b5b828203905092915050565b7f4e487b7100000000000000000000000000000000000000000000000000000000600052603260045260246000fd5b6000604082019050612d02600083018561252b565b612d0f6020830184612614565b9392505050565b7f4552433732313a2061646472657373207a65726f206973206e6f74206120766160008201527f6c6964206f776e65720000000000000000000000000000000000000000000000602082015250565b6000612d726029836123e6565b9150612d7d82612d16565b604082019050919050565b60006020820190508181036000830152612da181612d65565b9050919050565b7f596f75206861766520746f207061792074686520726967687420507269636500600082015250565b6000612dde601f836123e6565b9150612de982612da8565b602082019050919050565b60006020820190508181036000830152612e0d81612dd1565b9050919050565b7f5468652050726963652068617320746f206265206d6f7265207468616e203000600082015250565b6000612e4a601f836123e6565b9150612e5582612e14565b602082019050919050565b60006020820190508181036000830152612e7981612e3d565b9050919050565b7f596f75277265206e6f7420746865206f776e6572206f6620746865204e465400600082015250565b6000612eb6601f836123e6565b9150612ec182612e80565b602082019050919050565b60006020820190508181036000830152612ee581612ea9565b9050919050565b7f4552433732313a207472616e736665722066726f6d20696e636f72726563742060008201527f6f776e6572000000000000000000000000000000000000000000000000000000602082015250565b6000612f486025836123e6565b9150612f5382612eec565b604082019050919050565b60006020820190508181036000830152612f7781612f3b565b9050919050565b7f4552433732313a207472616e7366657220746f20746865207a65726f2061646460008201527f7265737300000000000000000000000000000000000000000000000000000000602082015250565b6000612fda6024836123e6565b9150612fe582612f7e565b604082019050919050565b6000602082019050818103600083015261300981612fcd565b9050919050565b600061301b82612496565b915061302683612496565b9250827fffffffffffffffffffffffffffffffffffffffffffffffffffffffffffffffff0382111561305b5761305a612c5b565b5b828201905092915050565b7f45524337323155524953746f726167653a2055524920736574206f66206e6f6e60008201527f6578697374656e7420746f6b656e000000000000000000000000000000000000602082015250565b60006130c2602e836123e6565b91506130cd82613066565b604082019050919050565b600060208201905081810360008301526130f1816130b5565b9050919050565b60006060820190508181036000830152613112818661243b565b90506131216020830185612614565b61312e604083018461252b565b949350505050565b7f4552433732313a20617070726f766520746f2063616c6c657200000000000000600082015250565b600061316c6019836123e6565b915061317782613136565b602082019050919050565b6000602082019050818103600083015261319b8161315f565b9050919050565b7f4552433732313a207472616e7366657220746f206e6f6e20455243373231526560008201527f63656976657220696d706c656d656e7465720000000000000000000000000000602082015250565b60006131fe6032836123e6565b9150613209826131a2565b604082019050919050565b6000602082019050818103600083015261322d816131f1565b9050919050565b600081905092915050565b600061324a826123db565b6132548185613234565b93506132648185602086016123f7565b80840191505092915050565b600061327c828561323f565b9150613288828461323f565b91508190509392505050565b600081519050919050565b600082825260208201905092915050565b60006132bb82613294565b6132c5818561329f565b93506132d58185602086016123f7565b6132de8161242a565b840191505092915050565b60006080820190506132fe600083018761252b565b61330b602083018661252b565b6133186040830185612614565b818103606083015261332a81846132b0565b905095945050505050565b6000815190506133448161234c565b92915050565b6000602082840312156133605761335f612316565b5b600061336e84828501613335565b91505092915050565b7f4552433732313a206d696e7420746f20746865207a65726f2061646472657373600082015250565b60006133ad6020836123e6565b91506133b882613377565b602082019050919050565b600060208201905081810360008301526133dc816133a0565b9050919050565b7f4552433732313a20746f6b656e20616c7265616479206d696e74656400000000600082015250565b6000613419601c836123e6565b9150613424826133e3565b602082019050919050565b600060208201905081810360008301526134488161340c565b9050919050565b600061345a82612496565b91507fffffffffffffffffffffffffffffffffffffffffffffffffffffffffffffffff82141561348d5761348c612c5b565b5b600182019050919050565b7f4e487b7100000000000000000000000000000000000000000000000000000000600052601260045260246000fd5b60006134d282612496565b91506134dd83612496565b9250826134ed576134ec613498565b5b828204905092915050565b600061350382612496565b915061350e83612496565b92508261351e5761351d613498565b5b82820690509291505056fe416e204e465420772f20494420257320686173206265656e206d696e74656420746f202573a264697066735822122081cef26720ecfd5657aa8f7f82a8a2b60f1873ee5399379e1c745056cb04bef564736f6c6343000809003368747470733a2f2f697066732e696f2f697066732f516d597a6262394b4a5945686236354a4e5250343576334c616a7a534e716b317742796f7432464476766a5941623f66696c656e616d653d466572726172692d322e6a736f6e68747470733a2f2f697066732e696f2f697066732f516d646343613862316362674d3635454c4a4b3243646a457a39366239486b36733164754c4c414c34317a554a593f66696c656e616d653d466572726172692e6a736f6e68747470733a2f2f697066732e696f2f697066732f516d576d78544b6b69764546715276734650534a5450316848516e524643344c56466651333279563174614e44313f66696c656e616d653d43616d61726f2e6a736f6e68747470733a2f2f697066732e696f2f697066732f516d59453142563544374e5439514e4c44476776536f79596f6150634b364b6635726a6f336451717759625543713f66696c656e616d653d4d636c6172656e2d50312d382e6a736f6e68747470733a2f2f697066732e696f2f697066732f516d5748646b786b786167565871347235796b5373356b316e3450424850513232314c71354e3731466b387976313f66696c656e616d653d4d636c6172656e2d50312e6a736f6e68747470733a2f2f697066732e696f2f697066732f516d647a39765871784839477278507075696b783650725575415a4c37614167316a4a374751486d744d734a36333f66696c656e616d653d4d757374616e672e6a736f6e68747470733a2f2f697066732e696f2f697066732f516d6637554c5464455a73384a786f4839736b614a6f47613453433475644a6b384c46715961397847386e4b34693f66696c656e616d653d466572726172692d3435382e6a736f6e68747470733a2f2f697066732e696f2f697066732f516d62525266544d724c696a5a58736133446d7857466a70357677454c6348596e6e576b4d593644546d3435797a3f66696c656e616d653d466572726172692d6265726c696e65742e6a736f6e68747470733a2f2f697066732e696f2f697066732f516d534c50384659645a697564527736434d634a4a73506573586a484141384a69596851644150754c70645a4b503f66696c656e616d653d4d636c6172656e2e6a736f6e",
    "linkReferences": {},
    "deployedLinkReferences": {}
}